{
  "address": "0x6d6273f52b0C8eaB388141393c1e8cfDB3311De6",
  "abi": [
    {
      "inputs": [
        {
          "internalType": "address",
          "name": "_sUSD",
          "type": "address"
        },
        {
          "internalType": "address",
          "name": "_aggregationRouterV4",
          "type": "address"
        },
        {
          "internalType": "address",
          "name": "_addressResolver",
          "type": "address"
        },
        {
          "internalType": "address",
          "name": "_volumeRewards",
          "type": "address"
        },
        {
          "internalType": "address",
          "name": "_treasury",
          "type": "address"
        }
      ],
      "stateMutability": "nonpayable",
      "type": "constructor"
    },
    {
      "anonymous": false,
      "inputs": [
        {
          "indexed": false,
          "internalType": "address",
          "name": "oldOwner",
          "type": "address"
        },
        {
          "indexed": false,
          "internalType": "address",
          "name": "newOwner",
          "type": "address"
        }
      ],
      "name": "OwnerChanged",
      "type": "event"
    },
    {
      "anonymous": false,
      "inputs": [
        {
          "indexed": false,
          "internalType": "address",
          "name": "newOwner",
          "type": "address"
        }
      ],
      "name": "OwnerNominated",
      "type": "event"
    },
    {
      "anonymous": false,
      "inputs": [
        {
          "indexed": false,
          "internalType": "address",
          "name": "from",
          "type": "address"
        },
        {
          "indexed": false,
          "internalType": "uint256",
          "name": "amountReceived",
          "type": "uint256"
        }
      ],
      "name": "Received",
      "type": "event"
    },
    {
      "anonymous": false,
      "inputs": [
        {
          "indexed": true,
          "internalType": "address",
          "name": "from",
          "type": "address"
        },
        {
          "indexed": false,
          "internalType": "uint256",
          "name": "amountReceived",
          "type": "uint256"
        }
      ],
      "name": "SwapInto",
      "type": "event"
    },
    {
      "anonymous": false,
      "inputs": [
        {
          "indexed": true,
          "internalType": "address",
          "name": "from",
          "type": "address"
        },
        {
          "indexed": false,
          "internalType": "uint256",
          "name": "amountReceived",
          "type": "uint256"
        }
      ],
      "name": "SwapOutOf",
      "type": "event"
    },
    {
      "inputs": [],
      "name": "acceptOwnership",
      "outputs": [],
      "stateMutability": "nonpayable",
      "type": "function"
    },
    {
      "inputs": [
        {
          "internalType": "address",
          "name": "_owner",
          "type": "address"
        }
      ],
      "name": "nominateNewOwner",
      "outputs": [],
      "stateMutability": "nonpayable",
      "type": "function"
    },
    {
      "inputs": [],
      "name": "nominatedOwner",
      "outputs": [
        {
          "internalType": "address",
          "name": "",
          "type": "address"
        }
      ],
      "stateMutability": "view",
      "type": "function"
    },
    {
      "inputs": [],
      "name": "owner",
      "outputs": [
        {
          "internalType": "address",
          "name": "",
          "type": "address"
        }
      ],
      "stateMutability": "view",
      "type": "function"
    },
    {
      "inputs": [
        {
          "internalType": "contract IERC20",
          "name": "token",
          "type": "address"
        },
        {
          "internalType": "uint256",
          "name": "amount",
          "type": "uint256"
        }
      ],
      "name": "rescueFunds",
      "outputs": [],
      "stateMutability": "nonpayable",
      "type": "function"
    },
    {
      "inputs": [
        {
          "internalType": "bytes32",
          "name": "_destSynthCurrencyKey",
          "type": "bytes32"
        },
        {
          "internalType": "bytes",
          "name": "_data",
          "type": "bytes"
        }
      ],
      "name": "swapInto",
      "outputs": [
        {
          "internalType": "uint256",
          "name": "",
          "type": "uint256"
        }
      ],
      "stateMutability": "payable",
      "type": "function"
    },
    {
      "inputs": [
        {
          "internalType": "bytes32",
          "name": "_sourceSynthCurrencyKey",
          "type": "bytes32"
        },
        {
          "internalType": "uint256",
          "name": "_sourceAmount",
          "type": "uint256"
        },
        {
          "internalType": "bytes",
          "name": "_data",
          "type": "bytes"
        }
      ],
      "name": "swapOutOf",
      "outputs": [
        {
          "internalType": "uint256",
          "name": "",
          "type": "uint256"
        }
      ],
      "stateMutability": "nonpayable",
      "type": "function"
    },
    {
      "inputs": [
        {
          "internalType": "bytes32",
          "name": "_destSynthCurrencyKey",
          "type": "bytes32"
        },
        {
          "internalType": "address",
          "name": "_sourceTokenAddress",
          "type": "address"
        },
        {
          "internalType": "uint256",
          "name": "_amount",
          "type": "uint256"
        },
        {
          "internalType": "bytes",
          "name": "_data",
          "type": "bytes"
        }
      ],
      "name": "uniswapSwapInto",
      "outputs": [
        {
          "internalType": "uint256",
          "name": "",
          "type": "uint256"
        }
      ],
      "stateMutability": "payable",
      "type": "function"
    },
    {
      "inputs": [
        {
          "internalType": "bytes32",
          "name": "_sourceSynthCurrencyKey",
          "type": "bytes32"
        },
        {
          "internalType": "address",
          "name": "_destTokenAddress",
          "type": "address"
        },
        {
          "internalType": "uint256",
          "name": "_amountOfSynth",
          "type": "uint256"
        },
        {
          "internalType": "uint256",
          "name": "_expectedAmountOfSUSDFromSwap",
          "type": "uint256"
        },
        {
          "internalType": "bytes",
          "name": "_data",
          "type": "bytes"
        }
      ],
      "name": "uniswapSwapOutOf",
      "outputs": [
        {
          "internalType": "uint256",
          "name": "",
          "type": "uint256"
        }
      ],
      "stateMutability": "nonpayable",
      "type": "function"
    },
    {
      "stateMutability": "payable",
      "type": "receive"
    }
  ],
  "transactionHash": "0x0e7a62b6baabe819965d69804cdc541e1c5392c1f94f44161c62e14d32b29d71",
  "args": [
    "0x8c6f28f2F1A3C87F0f938b96d27520d9751ec8d9",
    "0x1111111254760F7ab3F16433eea9304126DCd199",
    "0x95A6a3f44a70172E7d50a9e28c85Dfd712756B8C",
    "0x82d2242257115351899894eF384f779b5ba8c695",
    "0x82d2242257115351899894eF384f779b5ba8c695"
  ],
  "numDeployments": 5,
  "solcInputHash": "57a4c78278057720592ab75654524bfa",
  "bytecode": "0x6101206040523480156200001257600080fd5b50604051620024da380380620024da83398101604081905262000035916200013a565b3380620000885760405162461bcd60e51b815260206004820152601960248201527f4f776e657220616464726573732063616e6e6f74206265203000000000000000604482015260640160405180910390fd5b600080546001600160a01b0319166001600160a01b03831690811782556040805192835260208301919091527fb532073b38c83145e3e5135377a08bf9aab55bc0fd7c1179cd4fb995d2a5159c910160405180910390a15060016002556001600160601b0319606095861b811660805293851b841660a05291841b831660c052831b821660e05290911b1661010052620001a9565b80516001600160a01b03811681146200013557600080fd5b919050565b600080600080600060a0868803121562000152578081fd5b6200015d866200011d565b94506200016d602087016200011d565b93506200017d604087016200011d565b92506200018d606087016200011d565b91506200019d608087016200011d565b90509295509295909350565b60805160601c60a05160601c60c05160601c60e05160601c6101005160601c61227b6200025f600039600081816105870152610a8b015260006111430152600081816102cc0152818161063201528181610b1e01528181610eaa015261171b01526000818161072c015281816107dd01528181610cff01528181610d91015281816112bc015261134e0152600081816104ce015281816105650152818161075b015281816109d20152610a69015261227b6000f3fe60806040526004361061008a5760003560e01c806353a47bb71161005957806353a47bb71461015657806378e3214f1461018e57806379ba5097146101ae5780638da5cb5b146101c3578063b6479ccc146101e357600080fd5b80631627540c146100ce5780631fb9807b146100f05780633d326ccd146101235780634ab58b971461014357600080fd5b366100c957604080513381523460208201527f88a5966d370b9919b20f3e2c13ff65706f196a4e32cc2c12bf57088f88525874910160405180910390a1005b600080fd5b3480156100da57600080fd5b506100ee6100e9366004611c22565b6101f6565b005b3480156100fc57600080fd5b5061011061010b366004611d9d565b610252565b6040519081526020015b60405180910390f35b34801561012f57600080fd5b5061011061013e366004611ce2565b6105bd565b610110610151366004611d53565b610ac4565b34801561016257600080fd5b50600154610176906001600160a01b031681565b6040516001600160a01b03909116815260200161011a565b34801561019a57600080fd5b506100ee6101a9366004611ef0565b610ba3565b3480156101ba57600080fd5b506100ee610bc3565b3480156101cf57600080fd5b50600054610176906001600160a01b031681565b6101106101f1366004611c7a565b610cad565b6101fe610f31565b600180546001600160a01b0319166001600160a01b0383169081179091556040519081527f906a1c6bd7e3091ea86693dd029a831c19049ce77f1dce2ce0bab1cacbabce229060200160405180910390a150565b60006002805414156102ab5760405162461bcd60e51b815260206004820152601f60248201527f5265656e7472616e637947756172643a207265656e7472616e742063616c6c0060448201526064015b60405180910390fd5b60028055604051635145606160e01b815260048101869052600090610354907f00000000000000000000000000000000000000000000000000000000000000006001600160a01b0316906351456061906024015b60206040518083038186803b15801561031757600080fd5b505afa15801561032b573d6000803e3d6000fd5b505050506040513d601f19601f8201168201806040525081019061034f9190611c3e565b610fa5565b905061036b6001600160a01b03821633308861109b565b631cd554d160e21b861461038d5761038b8587631cd554d160e21b61110c565b505b60008061039c86866001611234565b90925090506001600160a01b03811673eeeeeeeeeeeeeeeeeeeeeeeeeeeeeeeeeeeeeeee141561046d576040516000908190339085908381818185875af1925050503d806000811461040a576040519150601f19603f3d011682016040523d82523d6000602084013e61040f565b606091505b5091509150816104665761044d8160405180604001604052806012815260200171031b0b636213cba32b9903330b4b632b21d160751b815250611456565b60405162461bcd60e51b81526004016102a29190612146565b5050610481565b6104816001600160a01b03821633846115ba565b60405182815233907f841af9c9a9b1d7e9d8916e0209707f6efdd9ef01804331bf2a0f4dc9f70892d29060200160405180910390a26040516370a0823160e01b81523060048201526000907f00000000000000000000000000000000000000000000000000000000000000006001600160a01b0316906370a082319060240160206040518083038186803b15801561051857600080fd5b505afa15801561052c573d6000803e3d6000fd5b505050506040513d601f19601f820116820180604052508101906105509190611f1b565b905080156105ac576105ac6001600160a01b037f0000000000000000000000000000000000000000000000000000000000000000167f0000000000000000000000000000000000000000000000000000000000000000836115ba565b505060016002559695505050505050565b60006002805414156106115760405162461bcd60e51b815260206004820152601f60248201527f5265656e7472616e637947756172643a207265656e7472616e742063616c6c0060448201526064016102a2565b60028055604051635145606160e01b815260048101889052600090610669907f00000000000000000000000000000000000000000000000000000000000000006001600160a01b0316906351456061906024016102ff565b6040516323b872dd60e01b8152336004820152306024820152604481018890529091506001600160a01b038216906323b872dd90606401602060405180830381600087803b1580156106ba57600080fd5b505af11580156106ce573d6000803e3d6000fd5b505050506040513d601f19601f820116820180604052508101906106f29190611c5a565b50631cd554d160e21b8814610715576107138689631cd554d160e21b61110c565b505b60405163095ea7b360e01b81526001600160a01b037f000000000000000000000000000000000000000000000000000000000000000081166004830152602482018790527f0000000000000000000000000000000000000000000000000000000000000000169063095ea7b390604401602060405180830381600087803b15801561079f57600080fd5b505af11580156107b3573d6000803e3d6000fd5b505050506040513d601f19601f820116820180604052508101906107d79190611c5a565b506000807f00000000000000000000000000000000000000000000000000000000000000006001600160a01b03168686604051610815929190611f82565b6000604051808303816000865af19150503d8060008114610852576040519150601f19603f3d011682016040523d82523d6000602084013e610857565b606091505b5091509150816108a05761044d816040518060400160405280601d81526020017f53796e7468537761703a2063616c6c4279746573206661696c65643a20000000815250611456565b6000818060200190518101906108b69190611f1b565b90506001600160a01b038a1673eeeeeeeeeeeeeeeeeeeeeeeeeeeeeeeeeeeeeeee14156109715760405133908290600081818185875af1925050503d806000811461091d576040519150601f19603f3d011682016040523d82523d6000602084013e610922565b606091505b5090935091508261096c5761044d826040518060400160405280601d81526020017f53796e7468537761703a2063616c6c4279746573206661696c65643a20000000815250611456565b610985565b6109856001600160a01b038b1633836115ba565b60405181815233907f841af9c9a9b1d7e9d8916e0209707f6efdd9ef01804331bf2a0f4dc9f70892d29060200160405180910390a26040516370a0823160e01b81523060048201526000907f00000000000000000000000000000000000000000000000000000000000000006001600160a01b0316906370a082319060240160206040518083038186803b158015610a1c57600080fd5b505afa158015610a30573d6000803e3d6000fd5b505050506040513d601f19601f82011682018060405250810190610a549190611f1b565b90508015610ab057610ab06001600160a01b037f0000000000000000000000000000000000000000000000000000000000000000167f0000000000000000000000000000000000000000000000000000000000000000836115ba565b5060016002559a9950505050505050505050565b600080610ad384846000611234565b509050631cd554d160e21b8514610af957610af681631cd554d160e21b8761110c565b90505b604051635145606160e01b815260048101869052600090610b4d906001600160a01b037f000000000000000000000000000000000000000000000000000000000000000016906351456061906024016102ff565b9050610b636001600160a01b03821633846115ba565b60405182815233907f7c61902edc6e3116a55da29ac3a6c37cf1574e202e5c0654203ca7658186d8b89060200160405180910390a25090505b9392505050565b610bab610f31565b610bbf6001600160a01b03831633836115ba565b5050565b6001546001600160a01b03163314610c3b5760405162461bcd60e51b815260206004820152603560248201527f596f75206d757374206265206e6f6d696e61746564206265666f726520796f7560448201527402063616e20616363657074206f776e65727368697605c1b60648201526084016102a2565b600054600154604080516001600160a01b0393841681529290911660208301527fb532073b38c83145e3e5135377a08bf9aab55bc0fd7c1179cd4fb995d2a5159c910160405180910390a160018054600080546001600160a01b03199081166001600160a01b03841617909155169055565b60006001600160a01b03851673eeeeeeeeeeeeeeeeeeeeeeeeeeeeeeeeeeeeeeee14610d8c57610ce86001600160a01b03861633308761109b565b60405163095ea7b360e01b81526001600160a01b037f0000000000000000000000000000000000000000000000000000000000000000811660048301526024820186905286169063095ea7b390604401602060405180830381600087803b158015610d5257600080fd5b505af1158015610d66573d6000803e3d6000fd5b505050506040513d601f19601f82011682018060405250810190610d8a9190611c5a565b505b6000807f00000000000000000000000000000000000000000000000000000000000000006001600160a01b0316348686604051610dca929190611f82565b60006040518083038185875af1925050503d8060008114610e07576040519150601f19603f3d011682016040523d82523d6000602084013e610e0c565b606091505b509150915081610e4a5761044d8160405180604001604052806012815260200171031b0b636213cba32b9903330b4b632b21d160751b815250611456565b600081806020019051810190610e609190611f1b565b9050631cd554d160e21b8914610e8557610e8281631cd554d160e21b8b61110c565b90505b604051635145606160e01b8152600481018a9052600090610ed9906001600160a01b037f000000000000000000000000000000000000000000000000000000000000000016906351456061906024016102ff565b9050610eef6001600160a01b03821633846115ba565b60405182815233907f7c61902edc6e3116a55da29ac3a6c37cf1574e202e5c0654203ca7658186d8b89060200160405180910390a25098975050505050505050565b6000546001600160a01b03163314610fa35760405162461bcd60e51b815260206004820152602f60248201527f4f6e6c792074686520636f6e7472616374206f776e6572206d6179207065726660448201526e37b936903a3434b99030b1ba34b7b760891b60648201526084016102a2565b565b60408051600481526024810182526020810180516001600160e01b031663ec55688960e01b1790529051600091829182916001600160a01b03861691610feb9190611f92565b6000604051808303816000865af19150503d8060008114611028576040519150601f19603f3d011682016040523d82523d6000602084013e61102d565b606091505b50915091508161107f5760405162461bcd60e51b815260206004820152601860248201527f6765742050726f78792061646472657373206661696c6564000000000000000060448201526064016102a2565b808060200190518101906110939190611c3e565b949350505050565b6040516001600160a01b03808516602483015283166044820152606481018290526111069085906323b872dd60e01b906084015b60408051601f198184030181529190526020810180516001600160e01b03166001600160e01b0319909316929092179091526115ef565b50505050565b6000806111176116c1565b60405163018756bb60e51b81526004810186905260248101879052604481018590526001600160a01b037f000000000000000000000000000000000000000000000000000000000000000081166064830152654b57454e544160d01b608483015291909116906330ead7609060a401602060405180830381600087803b1580156111a057600080fd5b505af11580156111b4573d6000803e3d6000fd5b505050506040513d601f19601f820116820180604052508101906111d89190611f1b565b9050600081116110935760405162461bcd60e51b815260206004820152602160248201527f53796e7468537761703a20737761704f6e53796e746865746978206661696c656044820152601960fa1b60648201526084016102a2565b60008080808061124687890189611dee565b306060830152815192955090935091506001600160a01b031673eeeeeeeeeeeeeeeeeeeeeeeeeeeeeeeeeeeeeeee1461134a578561129e576080820151825161129e916001600160a01b03909116903390309061109b565b8151608083015160405163095ea7b360e01b81526001600160a01b037f000000000000000000000000000000000000000000000000000000000000000081166004830152602482019290925291169063095ea7b390604401602060405180830381600087803b15801561131057600080fd5b505af1158015611324573d6000803e3d6000fd5b505050506040513d601f19601f820116820180604052508101906113489190611c5a565b505b60007f00000000000000000000000000000000000000000000000000000000000000006001600160a01b0316637c025200348686866040518563ffffffff1660e01b815260040161139d93929190612083565b60408051808303818588803b1580156113b557600080fd5b505af11580156113c9573d6000803e3d6000fd5b50505050506040513d601f19601f820116820180604052508101906113ee9190611f33565b509050600081116114415760405162461bcd60e51b815260206004820152601d60248201527f53796e7468537761703a20737761704f6e31696e6368206661696c656400000060448201526064016102a2565b60209092015191989197509095505050505050565b606060048351106115875760208301516001600160e01b0319811662461bcd60e51b14801561148757506044845110155b15611527576024848101518086018201805191929091906114a9908490612183565b6114b39190612183565b865110156114fb5760405162461bcd60e51b815260206004820152601560248201527424b73b30b634b2103932bb32b93a103932b0b9b7b760591b60448201526064016102a2565b848160405160200161150e92919061204e565b60405160208183030381529060405293505050506115b4565b6001600160e01b03198116634e487b7160e01b148015611548575083516024145b156115855760248401518361155c826117a2565b60405160200161156d929190611fae565b604051602081830303815290604052925050506115b4565b505b81611591846117ca565b6040516020016115a2929190611ffd565b60405160208183030381529060405290505b92915050565b6040516001600160a01b0383166024820152604481018290526115ea90849063a9059cbb60e01b906064016110cf565b505050565b6000611644826040518060400160405280602081526020017f5361666545524332303a206c6f772d6c6576656c2063616c6c206661696c6564815250856001600160a01b0316611a309092919063ffffffff16565b8051909150156115ea57808060200190518101906116629190611c5a565b6115ea5760405162461bcd60e51b815260206004820152602a60248201527f5361666545524332303a204552433230206f7065726174696f6e20646964206e6044820152691bdd081cdd58d8d9595960b21b60648201526084016102a2565b6040805163dacb2d0160e01b8152680a6f2dce8d0cae8d2f60bb1b60048201526024810191909152601760448201527f436f756c64206e6f74206765742053796e74686574697800000000000000000060648201526000907f00000000000000000000000000000000000000000000000000000000000000006001600160a01b03169063dacb2d019060840160206040518083038186803b15801561176557600080fd5b505afa158015611779573d6000803e3d6000fd5b505050506040513d601f19601f8201168201806040525081019061179d9190611c3e565b905090565b60606115b4826040516020016117ba91815260200190565b6040516020818303038152906040525b80516060906f181899199a1a9b1b9c1cb0b131b232b360811b906000906117f290600261219b565b6117fd906002612183565b67ffffffffffffffff81111561182357634e487b7160e01b600052604160045260246000fd5b6040519080825280601f01601f19166020018201604052801561184d576020820181803683370190505b509050600360fc1b8160008151811061187657634e487b7160e01b600052603260045260246000fd5b60200101906001600160f81b031916908160001a905350600f60fb1b816001815181106118b357634e487b7160e01b600052603260045260246000fd5b60200101906001600160f81b031916908160001a90535060005b8451811015611a28578260048683815181106118f957634e487b7160e01b600052603260045260246000fd5b01602001516001600160f81b031916901c60f81c6010811061192b57634e487b7160e01b600052603260045260246000fd5b1a60f81b8261193b83600261219b565b611946906002612183565b8151811061196457634e487b7160e01b600052603260045260246000fd5b60200101906001600160f81b031916908160001a9053508285828151811061199c57634e487b7160e01b600052603260045260246000fd5b60209101015160f81c600f16601081106119c657634e487b7160e01b600052603260045260246000fd5b1a60f81b826119d683600261219b565b6119e1906003612183565b815181106119ff57634e487b7160e01b600052603260045260246000fd5b60200101906001600160f81b031916908160001a90535080611a20816121e6565b9150506118cd565b509392505050565b60606110938484600085856001600160a01b0385163b611a925760405162461bcd60e51b815260206004820152601d60248201527f416464726573733a2063616c6c20746f206e6f6e2d636f6e747261637400000060448201526064016102a2565b600080866001600160a01b03168587604051611aae9190611f92565b60006040518083038185875af1925050503d8060008114611aeb576040519150601f19603f3d011682016040523d82523d6000602084013e611af0565b606091505b5091509150611b00828286611b0b565b979650505050505050565b60608315611b1a575081610b9c565b825115611b2a5782518084602001fd5b8160405162461bcd60e51b81526004016102a29190612146565b8035611b4f8161222d565b919050565b60008083601f840112611b65578182fd5b50813567ffffffffffffffff811115611b7c578182fd5b602083019150836020828501011115611b9457600080fd5b9250929050565b600082601f830112611bab578081fd5b813567ffffffffffffffff80821115611bc657611bc6612217565b604051601f8301601f19908116603f01168101908282118183101715611bee57611bee612217565b81604052838152866020858801011115611c06578485fd5b8360208701602083013792830160200193909352509392505050565b600060208284031215611c33578081fd5b8135610b9c8161222d565b600060208284031215611c4f578081fd5b8151610b9c8161222d565b600060208284031215611c6b578081fd5b81518015158114610b9c578182fd5b600080600080600060808688031215611c91578081fd5b853594506020860135611ca38161222d565b935060408601359250606086013567ffffffffffffffff811115611cc5578182fd5b611cd188828901611b54565b969995985093965092949392505050565b60008060008060008060a08789031215611cfa578081fd5b863595506020870135611d0c8161222d565b94506040870135935060608701359250608087013567ffffffffffffffff811115611d35578182fd5b611d4189828a01611b54565b979a9699509497509295939492505050565b600080600060408486031215611d67578283fd5b83359250602084013567ffffffffffffffff811115611d84578283fd5b611d9086828701611b54565b9497909650939450505050565b60008060008060608587031215611db2578384fd5b8435935060208501359250604085013567ffffffffffffffff811115611dd6578283fd5b611de287828801611b54565b95989497509550505050565b600080600060608486031215611e02578283fd5b8335611e0d8161222d565b9250602084013567ffffffffffffffff80821115611e29578384fd5b908501906101008288031215611e3d578384fd5b611e45612159565b611e4e83611b44565b8152611e5c60208401611b44565b6020820152611e6d60408401611b44565b6040820152611e7e60608401611b44565b60608201526080830135608082015260a083013560a082015260c083013560c082015260e083013582811115611eb2578586fd5b611ebe89828601611b9b565b60e08301525093506040860135915080821115611ed9578283fd5b50611ee686828701611b9b565b9150509250925092565b60008060408385031215611f02578182fd5b8235611f0d8161222d565b946020939093013593505050565b600060208284031215611f2c578081fd5b5051919050565b60008060408385031215611f45578182fd5b505080516020909101519092909150565b60008151808452611f6e8160208601602086016121ba565b601f01601f19169290920160200192915050565b8183823760009101908152919050565b60008251611fa48184602087016121ba565b9190910192915050565b60008351611fc08184602088016121ba565b650a0c2dcd2c6560d31b9083019081528351611fe38160068401602088016121ba565b602960f81b60069290910191820152600701949350505050565b6000835161200f8184602088016121ba565b670aadcd6dcdeeedc560c31b90830190815283516120348160088401602088016121ba565b602960f81b60089290910191820152600901949350505050565b600083516120608184602088016121ba565b6508ae4e4dee4560d31b9083019081528351611fe38160068401602088016121ba565b6001600160a01b038481168252606060208084018290528551909216908301528301516000906120be60808401826001600160a01b03169052565b5060408401516001600160a01b03811660a08401525060608401516001600160a01b03811660c084015250608084015160e083015260a0840151610100818185015260c086015161012085015260e086015191508061014085015250612128610160840182611f56565b9050828103604084015261213c8185611f56565b9695505050505050565b602081526000610b9c6020830184611f56565b604051610100810167ffffffffffffffff8111828210171561217d5761217d612217565b60405290565b6000821982111561219657612196612201565b500190565b60008160001904831182151516156121b5576121b5612201565b500290565b60005b838110156121d55781810151838201526020016121bd565b838111156111065750506000910152565b60006000198214156121fa576121fa612201565b5060010190565b634e487b7160e01b600052601160045260246000fd5b634e487b7160e01b600052604160045260246000fd5b6001600160a01b038116811461224257600080fd5b5056fea2646970667358221220611f129924bbdf8abe9973a248900a82821873ecee92da0678d832a45dd9abcf64736f6c63430008040033",
  "devdoc": {
    "details": "IAggregationRouterV4 relies on calldata generated off-chain",
    "kind": "dev",
    "methods": {
      "swapInto(bytes32,bytes)": {
        "details": "supports ETH -> Synth conversions",
        "params": {
          "_data": "is the transaction data returned by the 1inch API ",
          "_destSynthCurrencyKey": "is the bytes32 representation of a Synthetix currency key"
        },
        "returns": {
          "_0": "amount of destination synth received from swap"
        }
      },
      "swapOutOf(bytes32,uint256,bytes)": {
        "details": "make sure synthetix is approved to spend sourceAmountsupports Synth -> ETH conversions",
        "params": {
          "_data": "is the transaction data returned by the 1inch API",
          "_sourceAmount": "is the amount of sourceSynth to swap out of",
          "_sourceSynthCurrencyKey": "is the bytes32 representation of a Synthetix currency key"
        },
        "returns": {
          "_0": "amount of destination asset received from swap"
        }
      },
      "uniswapSwapInto(bytes32,address,uint256,bytes)": {
        "details": "supports ETH -> Synth conversions",
        "params": {
          "_amount": "is the amout of source token to be swapped",
          "_data": "is the transaction data returned by the 1inch API ",
          "_destSynthCurrencyKey": "is the bytes32 representation of a Synthetix currency key",
          "_sourceTokenAddress": "is the address of the source token"
        },
        "returns": {
          "_0": "amount of destination synth received from swap"
        }
      },
      "uniswapSwapOutOf(bytes32,address,uint256,uint256,bytes)": {
        "details": "make sure synthetix is approved to spend sourceAmountsupports Synth -> ETH conversions",
        "params": {
          "_amountOfSynth": "is the amount of sourceSynth to swap out of",
          "_data": "is the transaction data returned by the 1inch API",
          "_expectedAmountOfSUSDFromSwap": "is expected amount of sUSD to be returned from 1inch portion of swap",
          "_sourceSynthCurrencyKey": "is the bytes32 representation of a Synthetix currency key"
        },
        "returns": {
          "_0": "amount of destination asset received from swap"
        }
      }
    },
    "title": "system to swap synths to/from many erc20 tokens",
    "version": 1
  },
  "userdoc": {
    "kind": "user",
    "methods": {
      "rescueFunds(address,uint256)": {
        "notice": "owner possesses ability to rescue tokens locked within contract "
      },
      "swapInto(bytes32,bytes)": {
        "notice": "swap into a specified synth"
      },
      "swapOutOf(bytes32,uint256,bytes)": {
        "notice": "swap out of a specified synth"
      },
      "uniswapSwapInto(bytes32,address,uint256,bytes)": {
        "notice": "swap into a specified synth"
      },
      "uniswapSwapOutOf(bytes32,address,uint256,uint256,bytes)": {
        "notice": "swap out of a specified synth"
      }
    },
    "version": 1
  },
  "storageLayout": {
    "storage": [
      {
        "astId": 1558,
        "contract": "contracts/Synthswap.sol:SynthSwap",
        "label": "owner",
        "offset": 0,
        "slot": "0",
        "type": "t_address"
      },
      {
        "astId": 1560,
        "contract": "contracts/Synthswap.sol:SynthSwap",
        "label": "nominatedOwner",
        "offset": 0,
        "slot": "1",
        "type": "t_address"
      },
      {
        "astId": 1673,
        "contract": "contracts/Synthswap.sol:SynthSwap",
        "label": "_status",
        "offset": 0,
        "slot": "2",
        "type": "t_uint256"
      }
    ],
    "types": {
      "t_address": {
        "encoding": "inplace",
        "label": "address",
        "numberOfBytes": "20"
      },
      "t_uint256": {
        "encoding": "inplace",
        "label": "uint256",
        "numberOfBytes": "32"
      }
    }
  }
}