{
  "address": "0x261b11987b921DFE19544DB7c472913D7438d864",
  "abi": [
    {
      "inputs": [
        {
          "internalType": "address",
          "name": "_sUSD",
          "type": "address"
        },
        {
          "internalType": "address",
          "name": "_aggregationRouterV4",
          "type": "address"
        },
        {
          "internalType": "address",
          "name": "_addressResolver",
          "type": "address"
        },
        {
          "internalType": "address",
          "name": "_volumeRewards",
          "type": "address"
        },
        {
          "internalType": "address",
          "name": "_treasury",
          "type": "address"
        }
      ],
      "stateMutability": "nonpayable",
      "type": "constructor"
    },
    {
      "anonymous": false,
      "inputs": [
        {
          "indexed": false,
          "internalType": "address",
          "name": "oldOwner",
          "type": "address"
        },
        {
          "indexed": false,
          "internalType": "address",
          "name": "newOwner",
          "type": "address"
        }
      ],
      "name": "OwnerChanged",
      "type": "event"
    },
    {
      "anonymous": false,
      "inputs": [
        {
          "indexed": false,
          "internalType": "address",
          "name": "newOwner",
          "type": "address"
        }
      ],
      "name": "OwnerNominated",
      "type": "event"
    },
    {
      "anonymous": false,
      "inputs": [
        {
          "indexed": false,
          "internalType": "address",
          "name": "from",
          "type": "address"
        },
        {
          "indexed": false,
          "internalType": "uint256",
          "name": "amountReceived",
          "type": "uint256"
        }
      ],
      "name": "Received",
      "type": "event"
    },
    {
      "anonymous": false,
      "inputs": [
        {
          "indexed": true,
          "internalType": "address",
          "name": "from",
          "type": "address"
        },
        {
          "indexed": false,
          "internalType": "uint256",
          "name": "amountReceived",
          "type": "uint256"
        }
      ],
      "name": "SwapInto",
      "type": "event"
    },
    {
      "anonymous": false,
      "inputs": [
        {
          "indexed": true,
          "internalType": "address",
          "name": "from",
          "type": "address"
        },
        {
          "indexed": false,
          "internalType": "uint256",
          "name": "amountReceived",
          "type": "uint256"
        }
      ],
      "name": "SwapOutOf",
      "type": "event"
    },
    {
      "inputs": [],
      "name": "acceptOwnership",
      "outputs": [],
      "stateMutability": "nonpayable",
      "type": "function"
    },
    {
      "inputs": [
        {
          "internalType": "address",
          "name": "_owner",
          "type": "address"
        }
      ],
      "name": "nominateNewOwner",
      "outputs": [],
      "stateMutability": "nonpayable",
      "type": "function"
    },
    {
      "inputs": [],
      "name": "nominatedOwner",
      "outputs": [
        {
          "internalType": "address",
          "name": "",
          "type": "address"
        }
      ],
      "stateMutability": "view",
      "type": "function"
    },
    {
      "inputs": [],
      "name": "owner",
      "outputs": [
        {
          "internalType": "address",
          "name": "",
          "type": "address"
        }
      ],
      "stateMutability": "view",
      "type": "function"
    },
    {
      "inputs": [
        {
          "internalType": "contract IERC20",
          "name": "token",
          "type": "address"
        },
        {
          "internalType": "uint256",
          "name": "amount",
          "type": "uint256"
        }
      ],
      "name": "rescueFunds",
      "outputs": [],
      "stateMutability": "nonpayable",
      "type": "function"
    },
    {
      "inputs": [
        {
          "internalType": "bytes32",
          "name": "_destSynthCurrencyKey",
          "type": "bytes32"
        },
        {
          "internalType": "bytes",
          "name": "_data",
          "type": "bytes"
        }
      ],
      "name": "swapInto",
      "outputs": [
        {
          "internalType": "uint256",
          "name": "",
          "type": "uint256"
        }
      ],
      "stateMutability": "payable",
      "type": "function"
    },
    {
      "inputs": [
        {
          "internalType": "bytes32",
          "name": "_sourceSynthCurrencyKey",
          "type": "bytes32"
        },
        {
          "internalType": "uint256",
          "name": "_sourceAmount",
          "type": "uint256"
        },
        {
          "internalType": "bytes",
          "name": "_data",
          "type": "bytes"
        }
      ],
      "name": "swapOutOf",
      "outputs": [
        {
          "internalType": "uint256",
          "name": "",
          "type": "uint256"
        }
      ],
      "stateMutability": "nonpayable",
      "type": "function"
    },
    {
      "inputs": [
        {
          "internalType": "bytes32",
          "name": "_destSynthCurrencyKey",
          "type": "bytes32"
        },
        {
          "internalType": "address",
          "name": "_sourceTokenAddress",
          "type": "address"
        },
        {
          "internalType": "uint256",
          "name": "_amount",
          "type": "uint256"
        },
        {
          "internalType": "bytes",
          "name": "_data",
          "type": "bytes"
        }
      ],
      "name": "uniswapSwapInto",
      "outputs": [
        {
          "internalType": "uint256",
          "name": "",
          "type": "uint256"
        }
      ],
      "stateMutability": "payable",
      "type": "function"
    },
    {
      "inputs": [
        {
          "internalType": "bytes32",
          "name": "_sourceSynthCurrencyKey",
          "type": "bytes32"
        },
        {
          "internalType": "address",
          "name": "_destTokenAddress",
          "type": "address"
        },
        {
          "internalType": "uint256",
          "name": "_amountOfSynth",
          "type": "uint256"
        },
        {
          "internalType": "uint256",
          "name": "_expectedAmountOfSUSDFromSwap",
          "type": "uint256"
        },
        {
          "internalType": "bytes",
          "name": "_data",
          "type": "bytes"
        }
      ],
      "name": "uniswapSwapOutOf",
      "outputs": [
        {
          "internalType": "uint256",
          "name": "",
          "type": "uint256"
        }
      ],
      "stateMutability": "nonpayable",
      "type": "function"
    },
    {
      "stateMutability": "payable",
      "type": "receive"
    }
  ],
  "transactionHash": "0x1d1d9f7ec49d467f419e867450cd81e343b93692760947a021e989ad9ad0e2a7",
  "args": [
    "0x8c6f28f2F1A3C87F0f938b96d27520d9751ec8d9",
    "0x1111111254760F7ab3F16433eea9304126DCd199",
    "0x95A6a3f44a70172E7d50a9e28c85Dfd712756B8C",
    "0x82d2242257115351899894eF384f779b5ba8c695",
    "0x82d2242257115351899894eF384f779b5ba8c695"
  ],
  "numDeployments": 1,
  "solcInputHash": "945b6a20d3496a942dfef2e5bd5ae207",
  "bytecode": "0x6101206040523480156200001257600080fd5b50604051620027ba380380620027ba83398101604081905262000035916200013a565b3380620000885760405162461bcd60e51b815260206004820152601960248201527f4f776e657220616464726573732063616e6e6f74206265203000000000000000604482015260640160405180910390fd5b600080546001600160a01b0319166001600160a01b03831690811782556040805192835260208301919091527fb532073b38c83145e3e5135377a08bf9aab55bc0fd7c1179cd4fb995d2a5159c910160405180910390a15060016002556001600160601b0319606095861b811660805293851b841660a05291841b831660c052831b821660e05290911b1661010052620001a9565b80516001600160a01b03811681146200013557600080fd5b919050565b600080600080600060a0868803121562000152578081fd5b6200015d866200011d565b94506200016d602087016200011d565b93506200017d604087016200011d565b92506200018d606087016200011d565b91506200019d608087016200011d565b90509295509295909350565b60805160601c60a05160601c60c05160601c60e05160601c6101005160601c61254d6200026d600039600081816105a60152610a83015260006111360152600081816102e50152818161064d01528181610b2b01528181610ecf01526118ca0152600081816107ab015281816107d501528181610d6c01528181610d96015281816112e6015261130f0152600081816104ed0152818161058401528181610789015281816109ca01528181610a6101528181610aeb0152610e8f015261254d6000f3fe60806040526004361061009a5760003560e01c806353a47bb71161006957806379ba50971161004e57806379ba5097146101be5780638da5cb5b146101d3578063b6479ccc146101f357600080fd5b806353a47bb71461016657806378e3214f1461019e57600080fd5b80631627540c146100de5780631fb9807b146101005780633d326ccd146101335780634ab58b971461015357600080fd5b366100d957604080513381523460208201527f88a5966d370b9919b20f3e2c13ff65706f196a4e32cc2c12bf57088f88525874910160405180910390a1005b600080fd5b3480156100ea57600080fd5b506100fe6100f9366004611eb2565b610206565b005b34801561010c57600080fd5b5061012061011b36600461202d565b61026f565b6040519081526020015b60405180910390f35b34801561013f57600080fd5b5061012061014e366004611f72565b6105dc565b610120610161366004611fe3565b610abc565b34801561017257600080fd5b50600154610186906001600160a01b031681565b6040516001600160a01b03909116815260200161012a565b3480156101aa57600080fd5b506100fe6101b9366004612180565b610c03565b3480156101ca57600080fd5b506100fe610c23565b3480156101df57600080fd5b50600054610186906001600160a01b031681565b610120610201366004611f0a565b610d22565b61020e610fa9565b6001805473ffffffffffffffffffffffffffffffffffffffff19166001600160a01b0383169081179091556040519081527f906a1c6bd7e3091ea86693dd029a831c19049ce77f1dce2ce0bab1cacbabce229060200160405180910390a150565b60006002805414156102c85760405162461bcd60e51b815260206004820152601f60248201527f5265656e7472616e637947756172643a207265656e7472616e742063616c6c0060448201526064015b60405180910390fd5b60028055604051635145606160e01b8152600481018690526000907f00000000000000000000000000000000000000000000000000000000000000006001600160a01b03169063514560619060240160206040518083038186803b15801561032f57600080fd5b505afa158015610343573d6000803e3d6000fd5b505050506040513d601f19601f820116820180604052508101906103679190611ece565b905061037e6001600160a01b03821633308861102b565b631cd554d160e21b86146103a15761039f8587631cd554d160e21b846110c9565b505b6000806103b086866001611263565b90925090506001600160a01b03811673eeeeeeeeeeeeeeeeeeeeeeeeeeeeeeeeeeeeeeee141561048c576040516000908190339085908381818185875af1925050503d806000811461041e576040519150601f19603f3d011682016040523d82523d6000602084013e610423565b606091505b5091509150816104855761046c816040518060400160405280601281526020017f63616c6c4279746573206661696c65643a200000000000000000000000000000815250611417565b60405162461bcd60e51b81526004016102bf9190612418565b50506104a0565b6104a06001600160a01b03821633846115b3565b60405182815233907f841af9c9a9b1d7e9d8916e0209707f6efdd9ef01804331bf2a0f4dc9f70892d29060200160405180910390a26040516370a0823160e01b81523060048201526000907f00000000000000000000000000000000000000000000000000000000000000006001600160a01b0316906370a082319060240160206040518083038186803b15801561053757600080fd5b505afa15801561054b573d6000803e3d6000fd5b505050506040513d601f19601f8201168201806040525081019061056f91906121ab565b905080156105cb576105cb6001600160a01b037f0000000000000000000000000000000000000000000000000000000000000000167f0000000000000000000000000000000000000000000000000000000000000000836115b3565b505060016002559695505050505050565b60006002805414156106305760405162461bcd60e51b815260206004820152601f60248201527f5265656e7472616e637947756172643a207265656e7472616e742063616c6c0060448201526064016102bf565b60028055604051635145606160e01b8152600481018890526000907f00000000000000000000000000000000000000000000000000000000000000006001600160a01b03169063514560619060240160206040518083038186803b15801561069757600080fd5b505afa1580156106ab573d6000803e3d6000fd5b505050506040513d601f19601f820116820180604052508101906106cf9190611ece565b6040516323b872dd60e01b8152336004820152306024820152604481018890529091506001600160a01b038216906323b872dd90606401602060405180830381600087803b15801561072057600080fd5b505af1158015610734573d6000803e3d6000fd5b505050506040513d601f19601f820116820180604052508101906107589190611eea565b50631cd554d160e21b881461077c5761077a8689631cd554d160e21b846110c9565b505b6107d06001600160a01b037f0000000000000000000000000000000000000000000000000000000000000000167f000000000000000000000000000000000000000000000000000000000000000087611601565b6000807f00000000000000000000000000000000000000000000000000000000000000006001600160a01b0316868660405161080d929190612212565b6000604051808303816000865af19150503d806000811461084a576040519150601f19603f3d011682016040523d82523d6000602084013e61084f565b606091505b5091509150816108985761046c816040518060400160405280601d81526020017f53796e7468537761703a2063616c6c4279746573206661696c65643a20000000815250611417565b6000818060200190518101906108ae91906121ab565b90506001600160a01b038a1673eeeeeeeeeeeeeeeeeeeeeeeeeeeeeeeeeeeeeeee14156109695760405133908290600081818185875af1925050503d8060008114610915576040519150601f19603f3d011682016040523d82523d6000602084013e61091a565b606091505b509093509150826109645761046c826040518060400160405280601d81526020017f53796e7468537761703a2063616c6c4279746573206661696c65643a20000000815250611417565b61097d565b61097d6001600160a01b038b1633836115b3565b60405181815233907f841af9c9a9b1d7e9d8916e0209707f6efdd9ef01804331bf2a0f4dc9f70892d29060200160405180910390a26040516370a0823160e01b81523060048201526000907f00000000000000000000000000000000000000000000000000000000000000006001600160a01b0316906370a082319060240160206040518083038186803b158015610a1457600080fd5b505afa158015610a28573d6000803e3d6000fd5b505050506040513d601f19601f82011682018060405250810190610a4c91906121ab565b90508015610aa857610aa86001600160a01b037f0000000000000000000000000000000000000000000000000000000000000000167f0000000000000000000000000000000000000000000000000000000000000000836115b3565b5060016002559a9950505050505050505050565b600080610acb84846000611263565b509050631cd554d160e21b8514610b1257610b0f81631cd554d160e21b877f00000000000000000000000000000000000000000000000000000000000000006110c9565b90505b604051635145606160e01b8152600481018690526000907f00000000000000000000000000000000000000000000000000000000000000006001600160a01b03169063514560619060240160206040518083038186803b158015610b7557600080fd5b505afa158015610b89573d6000803e3d6000fd5b505050506040513d601f19601f82011682018060405250810190610bad9190611ece565b9050610bc36001600160a01b03821633846115b3565b60405182815233907f7c61902edc6e3116a55da29ac3a6c37cf1574e202e5c0654203ca7658186d8b89060200160405180910390a25090505b9392505050565b610c0b610fa9565b610c1f6001600160a01b03831633836115b3565b5050565b6001546001600160a01b03163314610ca35760405162461bcd60e51b815260206004820152603560248201527f596f75206d757374206265206e6f6d696e61746564206265666f726520796f7560448201527f2063616e20616363657074206f776e657273686970000000000000000000000060648201526084016102bf565b600054600154604080516001600160a01b0393841681529290911660208301527fb532073b38c83145e3e5135377a08bf9aab55bc0fd7c1179cd4fb995d2a5159c910160405180910390a1600180546000805473ffffffffffffffffffffffffffffffffffffffff199081166001600160a01b03841617909155169055565b60006001600160a01b03851673eeeeeeeeeeeeeeeeeeeeeeeeeeeeeeeeeeeeeeee14610d9157610d5d6001600160a01b03861633308761102b565b610d916001600160a01b0386167f000000000000000000000000000000000000000000000000000000000000000086611601565b6000807f00000000000000000000000000000000000000000000000000000000000000006001600160a01b0316348686604051610dcf929190612212565b60006040518083038185875af1925050503d8060008114610e0c576040519150601f19603f3d011682016040523d82523d6000602084013e610e11565b606091505b509150915081610e5a5761046c816040518060400160405280601281526020017f63616c6c4279746573206661696c65643a200000000000000000000000000000815250611417565b600081806020019051810190610e7091906121ab565b9050631cd554d160e21b8914610eb657610eb381631cd554d160e21b8b7f00000000000000000000000000000000000000000000000000000000000000006110c9565b90505b604051635145606160e01b8152600481018a90526000907f00000000000000000000000000000000000000000000000000000000000000006001600160a01b03169063514560619060240160206040518083038186803b158015610f1957600080fd5b505afa158015610f2d573d6000803e3d6000fd5b505050506040513d601f19601f82011682018060405250810190610f519190611ece565b9050610f676001600160a01b03821633846115b3565b60405182815233907f7c61902edc6e3116a55da29ac3a6c37cf1574e202e5c0654203ca7658186d8b89060200160405180910390a25098975050505050505050565b6000546001600160a01b031633146110295760405162461bcd60e51b815260206004820152602f60248201527f4f6e6c792074686520636f6e7472616374206f776e6572206d6179207065726660448201527f6f726d207468697320616374696f6e000000000000000000000000000000000060648201526084016102bf565b565b6040516001600160a01b03808516602483015283166044820152606481018290526110c39085906323b872dd60e01b906084015b60408051601f198184030181529190526020810180517bffffffffffffffffffffffffffffffffffffffffffffffffffffffff167fffffffff000000000000000000000000000000000000000000000000000000009093169290921790915261175e565b50505050565b60006110e76110d6611843565b6001600160a01b0384169087611601565b60006110f1611843565b6040517f30ead7600000000000000000000000000000000000000000000000000000000081526004810187905260248101889052604481018690526001600160a01b037f0000000000000000000000000000000000000000000000000000000000000000811660648301527f4b57454e54410000000000000000000000000000000000000000000000000000608483015291909116906330ead7609060a401602060405180830381600087803b1580156111aa57600080fd5b505af11580156111be573d6000803e3d6000fd5b505050506040513d601f19601f820116820180604052508101906111e291906121ab565b90506000811161125a5760405162461bcd60e51b815260206004820152602160248201527f53796e7468537761703a20737761704f6e53796e746865746978206661696c6560448201527f640000000000000000000000000000000000000000000000000000000000000060648201526084016102bf565b95945050505050565b6000808080806112758789018961207e565b306060830152815192955090935091506001600160a01b031673eeeeeeeeeeeeeeeeeeeeeeeeeeeeeeeeeeeeeeee1461130b57856112cd57608082015182516112cd916001600160a01b03909116903390309061102b565b6080820151825161130b916001600160a01b03909116907f000000000000000000000000000000000000000000000000000000000000000090611601565b60007f00000000000000000000000000000000000000000000000000000000000000006001600160a01b0316637c025200348686866040518563ffffffff1660e01b815260040161135e93929190612356565b60408051808303818588803b15801561137657600080fd5b505af115801561138a573d6000803e3d6000fd5b50505050506040513d601f19601f820116820180604052508101906113af91906121c3565b509050600081116114025760405162461bcd60e51b815260206004820152601d60248201527f53796e7468537761703a20737761704f6e31696e6368206661696c656400000060448201526064016102bf565b60209092015191989197509095505050505050565b606060048351106115805760208301517fffffffff00000000000000000000000000000000000000000000000000000000811662461bcd60e51b14801561146057506044845110155b1561150857602484810151808601820180519192909190611482908490612455565b61148c9190612455565b865110156114dc5760405162461bcd60e51b815260206004820152601560248201527f496e76616c69642072657665727420726561736f6e000000000000000000000060448201526064016102bf565b84816040516020016114ef92919061230a565b60405160208183030381529060405293505050506115ad565b7fffffffff000000000000000000000000000000000000000000000000000000008116634e487b7160e01b148015611541575083516024145b1561157e5760248401518361155582611951565b60405160200161156692919061223e565b604051602081830303815290604052925050506115ad565b505b8161158a84611979565b60405160200161159b9291906122a4565b60405160208183030381529060405290505b92915050565b6040516001600160a01b0383166024820152604481018290526115fc9084907fa9059cbb000000000000000000000000000000000000000000000000000000009060640161105f565b505050565b8015806116a357506040517fdd62ed3e0000000000000000000000000000000000000000000000000000000081523060048201526001600160a01b03838116602483015284169063dd62ed3e9060440160206040518083038186803b15801561166957600080fd5b505afa15801561167d573d6000803e3d6000fd5b505050506040513d601f19601f820116820180604052508101906116a191906121ab565b155b6117155760405162461bcd60e51b815260206004820152603660248201527f5361666545524332303a20617070726f76652066726f6d206e6f6e2d7a65726f60448201527f20746f206e6f6e2d7a65726f20616c6c6f77616e63650000000000000000000060648201526084016102bf565b6040516001600160a01b0383166024820152604481018290526115fc9084907f095ea7b3000000000000000000000000000000000000000000000000000000009060640161105f565b60006117b3826040518060400160405280602081526020017f5361666545524332303a206c6f772d6c6576656c2063616c6c206661696c6564815250856001600160a01b0316611c3c9092919063ffffffff16565b8051909150156115fc57808060200190518101906117d19190611eea565b6115fc5760405162461bcd60e51b815260206004820152602a60248201527f5361666545524332303a204552433230206f7065726174696f6e20646964206e60448201527f6f7420737563636565640000000000000000000000000000000000000000000060648201526084016102bf565b604080517fdacb2d010000000000000000000000000000000000000000000000000000000081527f53796e746865746978000000000000000000000000000000000000000000000060048201526024810191909152601760448201527f436f756c64206e6f74206765742053796e74686574697800000000000000000060648201526000907f00000000000000000000000000000000000000000000000000000000000000006001600160a01b03169063dacb2d019060840160206040518083038186803b15801561191457600080fd5b505afa158015611928573d6000803e3d6000fd5b505050506040513d601f19601f8201168201806040525081019061194c9190611ece565b905090565b60606115ad8260405160200161196991815260200190565b6040516020818303038152906040525b80516060907f3031323334353637383961626364656600000000000000000000000000000000906000906119ae90600261246d565b6119b9906002612455565b67ffffffffffffffff8111156119df57634e487b7160e01b600052604160045260246000fd5b6040519080825280601f01601f191660200182016040528015611a09576020820181803683370190505b5090507f300000000000000000000000000000000000000000000000000000000000000081600081518110611a4e57634e487b7160e01b600052603260045260246000fd5b60200101906001600160f81b031916908160001a9053507f780000000000000000000000000000000000000000000000000000000000000081600181518110611aa757634e487b7160e01b600052603260045260246000fd5b60200101906001600160f81b031916908160001a90535060005b8451811015611c3457826004868381518110611aed57634e487b7160e01b600052603260045260246000fd5b01602001517fff0000000000000000000000000000000000000000000000000000000000000016901c60f81c60108110611b3757634e487b7160e01b600052603260045260246000fd5b1a60f81b82611b4783600261246d565b611b52906002612455565b81518110611b7057634e487b7160e01b600052603260045260246000fd5b60200101906001600160f81b031916908160001a90535082858281518110611ba857634e487b7160e01b600052603260045260246000fd5b60209101015160f81c600f1660108110611bd257634e487b7160e01b600052603260045260246000fd5b1a60f81b82611be283600261246d565b611bed906003612455565b81518110611c0b57634e487b7160e01b600052603260045260246000fd5b60200101906001600160f81b031916908160001a90535080611c2c816124b8565b915050611ac1565b509392505050565b6060611c4b8484600085611c53565b949350505050565b606082471015611ccb5760405162461bcd60e51b815260206004820152602660248201527f416464726573733a20696e73756666696369656e742062616c616e636520666f60448201527f722063616c6c000000000000000000000000000000000000000000000000000060648201526084016102bf565b6001600160a01b0385163b611d225760405162461bcd60e51b815260206004820152601d60248201527f416464726573733a2063616c6c20746f206e6f6e2d636f6e747261637400000060448201526064016102bf565b600080866001600160a01b03168587604051611d3e9190612222565b60006040518083038185875af1925050503d8060008114611d7b576040519150601f19603f3d011682016040523d82523d6000602084013e611d80565b606091505b5091509150611d90828286611d9b565b979650505050505050565b60608315611daa575081610bfc565b825115611dba5782518084602001fd5b8160405162461bcd60e51b81526004016102bf9190612418565b8035611ddf816124ff565b919050565b60008083601f840112611df5578182fd5b50813567ffffffffffffffff811115611e0c578182fd5b602083019150836020828501011115611e2457600080fd5b9250929050565b600082601f830112611e3b578081fd5b813567ffffffffffffffff80821115611e5657611e566124e9565b604051601f8301601f19908116603f01168101908282118183101715611e7e57611e7e6124e9565b81604052838152866020858801011115611e96578485fd5b8360208701602083013792830160200193909352509392505050565b600060208284031215611ec3578081fd5b8135610bfc816124ff565b600060208284031215611edf578081fd5b8151610bfc816124ff565b600060208284031215611efb578081fd5b81518015158114610bfc578182fd5b600080600080600060808688031215611f21578081fd5b853594506020860135611f33816124ff565b935060408601359250606086013567ffffffffffffffff811115611f55578182fd5b611f6188828901611de4565b969995985093965092949392505050565b60008060008060008060a08789031215611f8a578081fd5b863595506020870135611f9c816124ff565b94506040870135935060608701359250608087013567ffffffffffffffff811115611fc5578182fd5b611fd189828a01611de4565b979a9699509497509295939492505050565b600080600060408486031215611ff7578283fd5b83359250602084013567ffffffffffffffff811115612014578283fd5b61202086828701611de4565b9497909650939450505050565b60008060008060608587031215612042578384fd5b8435935060208501359250604085013567ffffffffffffffff811115612066578283fd5b61207287828801611de4565b95989497509550505050565b600080600060608486031215612092578283fd5b833561209d816124ff565b9250602084013567ffffffffffffffff808211156120b9578384fd5b9085019061010082880312156120cd578384fd5b6120d561242b565b6120de83611dd4565b81526120ec60208401611dd4565b60208201526120fd60408401611dd4565b604082015261210e60608401611dd4565b60608201526080830135608082015260a083013560a082015260c083013560c082015260e083013582811115612142578586fd5b61214e89828601611e2b565b60e08301525093506040860135915080821115612169578283fd5b5061217686828701611e2b565b9150509250925092565b60008060408385031215612192578182fd5b823561219d816124ff565b946020939093013593505050565b6000602082840312156121bc578081fd5b5051919050565b600080604083850312156121d5578182fd5b505080516020909101519092909150565b600081518084526121fe81602086016020860161248c565b601f01601f19169290920160200192915050565b8183823760009101908152919050565b6000825161223481846020870161248c565b9190910192915050565b6000835161225081846020880161248c565b7f50616e6963280000000000000000000000000000000000000000000000000000908301908152835161228a81600684016020880161248c565b602960f81b60069290910191820152600701949350505050565b600083516122b681846020880161248c565b7f556e6b6e6f776e2800000000000000000000000000000000000000000000000090830190815283516122f081600884016020880161248c565b602960f81b60089290910191820152600901949350505050565b6000835161231c81846020880161248c565b7f4572726f72280000000000000000000000000000000000000000000000000000908301908152835161228a81600684016020880161248c565b60006001600160a01b0380861683526060602084015280855116606084015250602084015161239060808401826001600160a01b03169052565b5060408401516001600160a01b03811660a08401525060608401516001600160a01b03811660c084015250608084015160e083015260a0840151610100818185015260c086015161012085015260e0860151915080610140850152506123fa6101608401826121e6565b9050828103604084015261240e81856121e6565b9695505050505050565b602081526000610bfc60208301846121e6565b604051610100810167ffffffffffffffff8111828210171561244f5761244f6124e9565b60405290565b60008219821115612468576124686124d3565b500190565b6000816000190483118215151615612487576124876124d3565b500290565b60005b838110156124a757818101518382015260200161248f565b838111156110c35750506000910152565b60006000198214156124cc576124cc6124d3565b5060010190565b634e487b7160e01b600052601160045260246000fd5b634e487b7160e01b600052604160045260246000fd5b6001600160a01b038116811461251457600080fd5b5056fea26469706673582212205ce775295bfb7bbce97c2b6cc121b47bcee4a5f619420a586df8c5ecf170448e64736f6c63430008040033",
  "devdoc": {
    "details": "IAggregationRouterV4 relies on calldata generated off-chain",
    "kind": "dev",
    "methods": {
      "swapInto(bytes32,bytes)": {
        "details": "supports ETH -> Synth conversions",
        "params": {
          "_data": "is the transaction data returned by the 1inch API ",
          "_destSynthCurrencyKey": "is the bytes32 representation of a Synthetix currency key"
        },
        "returns": {
          "_0": "amount of destination synth received from swap"
        }
      },
      "swapOutOf(bytes32,uint256,bytes)": {
        "details": "make sure synthetix is approved to spend sourceAmountsupports Synth -> ETH conversions",
        "params": {
          "_data": "is the transaction data returned by the 1inch API",
          "_sourceAmount": "is the amount of sourceSynth to swap out of",
          "_sourceSynthCurrencyKey": "is the bytes32 representation of a Synthetix currency key"
        },
        "returns": {
          "_0": "amount of destination asset received from swap"
        }
      },
      "uniswapSwapInto(bytes32,address,uint256,bytes)": {
        "details": "supports ETH -> Synth conversions",
        "params": {
          "_amount": "is the amout of source token to be swapped",
          "_data": "is the transaction data returned by the 1inch API ",
          "_destSynthCurrencyKey": "is the bytes32 representation of a Synthetix currency key",
          "_sourceTokenAddress": "is the address of the source token"
        },
        "returns": {
          "_0": "amount of destination synth received from swap"
        }
      },
      "uniswapSwapOutOf(bytes32,address,uint256,uint256,bytes)": {
        "details": "make sure synthetix is approved to spend sourceAmountsupports Synth -> ETH conversions",
        "params": {
          "_amountOfSynth": "is the amount of sourceSynth to swap out of",
          "_data": "is the transaction data returned by the 1inch API",
          "_expectedAmountOfSUSDFromSwap": "is expected amount of sUSD to be returned from 1inch portion of swap",
          "_sourceSynthCurrencyKey": "is the bytes32 representation of a Synthetix currency key"
        },
        "returns": {
          "_0": "amount of destination asset received from swap"
        }
      }
    },
    "title": "system to swap synths to/from many erc20 tokens",
    "version": 1
  },
  "userdoc": {
    "kind": "user",
    "methods": {
      "rescueFunds(address,uint256)": {
        "notice": "owner possesses ability to rescue tokens locked within contract "
      },
      "swapInto(bytes32,bytes)": {
        "notice": "swap into a specified synth"
      },
      "swapOutOf(bytes32,uint256,bytes)": {
        "notice": "swap out of a specified synth"
      },
      "uniswapSwapInto(bytes32,address,uint256,bytes)": {
        "notice": "swap into a specified synth"
      },
      "uniswapSwapOutOf(bytes32,address,uint256,uint256,bytes)": {
        "notice": "swap out of a specified synth"
      }
    },
    "version": 1
  },
  "storageLayout": {
    "storage": [
      {
        "astId": 1537,
        "contract": "contracts/Synthswap.sol:SynthSwap",
        "label": "owner",
        "offset": 0,
        "slot": "0",
        "type": "t_address"
      },
      {
        "astId": 1539,
        "contract": "contracts/Synthswap.sol:SynthSwap",
        "label": "nominatedOwner",
        "offset": 0,
        "slot": "1",
        "type": "t_address"
      },
      {
        "astId": 1652,
        "contract": "contracts/Synthswap.sol:SynthSwap",
        "label": "_status",
        "offset": 0,
        "slot": "2",
        "type": "t_uint256"
      }
    ],
    "types": {
      "t_address": {
        "encoding": "inplace",
        "label": "address",
        "numberOfBytes": "20"
      },
      "t_uint256": {
        "encoding": "inplace",
        "label": "uint256",
        "numberOfBytes": "32"
      }
    }
  }
}